{
  "contractName": "Community",
  "abi": [
    {
      "constant": true,
      "inputs": [],
      "name": "adminMask",
      "outputs": [
        {
          "name": "",
          "type": "bytes32"
        }
      ],
      "payable": false,
      "stateMutability": "view",
      "type": "function"
    },
    {
      "constant": true,
      "inputs": [],
      "name": "userMask",
      "outputs": [
        {
          "name": "",
          "type": "bytes32"
        }
      ],
      "payable": false,
      "stateMutability": "view",
      "type": "function"
    },
    {
      "constant": true,
      "inputs": [],
      "name": "entitiesList",
      "outputs": [
        {
          "name": "",
          "type": "address"
        }
      ],
      "payable": false,
      "stateMutability": "view",
      "type": "function"
    },
    {
      "inputs": [],
      "payable": false,
      "stateMutability": "nonpayable",
      "type": "constructor"
    },
    {
      "constant": false,
      "inputs": [
        {
          "name": "account",
          "type": "address",
          "indexed": true
        },
        {
          "indexed": false,
          "name": "roles",
          "type": "bytes32"
        }
      ],
      "name": "EntityAdded",
      "outputs": [],
      "payable": false,
      "stateMutability": "nonpayable",
      "type": "event",
      "anonymous": false
    },
    {
      "constant": false,
      "inputs": [
        {
          "name": "_entitiesList",
          "type": "address"
        }
      ],
      "name": "setEntitiesList",
      "outputs": [],
      "payable": false,
      "stateMutability": "nonpayable",
      "type": "function"
    },
    {
      "constant": false,
      "inputs": [
        {
          "name": "_account",
          "type": "address"
        },
        {
          "name": "_roles",
          "type": "bytes32"
        }
      ],
      "name": "join",
      "outputs": [],
      "payable": false,
      "stateMutability": "nonpayable",
      "type": "function"
    },
    {
      "constant": false,
      "inputs": [
        {
          "name": "_account",
          "type": "address"
        },
        {
          "name": "_roles",
          "type": "bytes32"
        }
      ],
      "name": "addEntity",
      "outputs": [],
      "payable": false,
      "stateMutability": "nonpayable",
      "type": "function"
    },
    {
      "constant": false,
      "inputs": [
        {
          "name": "_account",
          "type": "address"
        },
        {
          "name": "_entityRoles",
          "type": "bytes32"
        }
      ],
      "name": "removeEntity",
      "outputs": [],
      "payable": false,
      "stateMutability": "nonpayable",
      "type": "function"
    },
    {
      "constant": false,
      "inputs": [
        {
          "name": "_account",
          "type": "address"
        },
        {
          "name": "_entityRoles",
          "type": "bytes32"
        }
      ],
      "name": "addEnitityRoles",
      "outputs": [],
      "payable": false,
      "stateMutability": "nonpayable",
      "type": "function"
    },
    {
      "constant": false,
      "inputs": [
        {
          "name": "_account",
          "type": "address"
        },
        {
          "name": "_entityRoles",
          "type": "bytes32"
        }
      ],
      "name": "removeEnitityRoles",
      "outputs": [
        {
          "name": "",
          "type": "bool"
        }
      ],
      "payable": false,
      "stateMutability": "nonpayable",
      "type": "function"
    },
    {
      "constant": true,
      "inputs": [
        {
          "name": "_account",
          "type": "address"
        },
        {
          "name": "_entityRoles",
          "type": "bytes32"
        }
      ],
      "name": "hasRoles",
      "outputs": [
        {
          "name": "",
          "type": "bool"
        }
      ],
      "payable": false,
      "stateMutability": "view",
      "type": "function"
    }
  ],
  "bytecode": "0x608060405234801561001057600080fd5b506100196100ce565b604051809103906000f080158015610035573d6000803e3d6000fd5b5060008054600160a060020a031916600160a060020a0392831617808255604080517fe8d60bbf000000000000000000000000000000000000000000000000000000008152336004820152600360248201529051919093169263e8d60bbf92604480830193919282900301818387803b1580156100b157600080fd5b505af11580156100c5573d6000803e3d6000fd5b505050506100de565b6040516106c08061098283390190565b610895806100ed6000396000f3006080604052600436106100a35763ffffffff7c0100000000000000000000000000000000000000000000000000000000600035041663247838c081146100a857806330904a0b146100cb57806351901f70146100f25780636e7a216b14610107578063b688a36314610138578063bb0b15ca1461014d578063d233749414610171578063dd182996146101a9578063e8d60bbf146101ca578063f3909458146101ee575b600080fd5b3480156100b457600080fd5b506100c9600160a060020a0360043516610212565b005b3480156100d757600080fd5b506100e06102d0565b60408051918252519081900360200190f35b3480156100fe57600080fd5b506100e06102d5565b34801561011357600080fd5b5061011c6102da565b60408051600160a060020a039092168252519081900360200190f35b34801561014457600080fd5b506100c96102e9565b34801561015957600080fd5b506100c9600160a060020a036004351660243561036a565b34801561017d57600080fd5b50610195600160a060020a0360043516602435610480565b604080519115158252519081900360200190f35b3480156101b557600080fd5b506100c9600160a060020a036004351661050c565b3480156101d657600080fd5b506100c9600160a060020a036004351660243561061a565b3480156101fa57600080fd5b506100c9600160a060020a036004351660243561076f565b600080546040805160e260020a63348cdd25028152336004820152600260248201529051600160a060020a039092169263d2337494926044808401936020939083900390910190829087803b15801561026a57600080fd5b505af115801561027e573d6000803e3d6000fd5b505050506040513d602081101561029457600080fd5b505115156102a157600080fd5b6000805473ffffffffffffffffffffffffffffffffffffffff1916600160a060020a0392909216919091179055565b600281565b600181565b600054600160a060020a031681565b60008054604080517fe8d60bbf000000000000000000000000000000000000000000000000000000008152336004820152600160248201529051600160a060020a039092169263e8d60bbf9260448084019382900301818387803b15801561035057600080fd5b505af1158015610364573d6000803e3d6000fd5b50505050565b600080546040805160e260020a63348cdd25028152336004820152600260248201529051600160a060020a039092169263d2337494926044808401936020939083900390910190829087803b1580156103c257600080fd5b505af11580156103d6573d6000803e3d6000fd5b505050506040513d60208110156103ec57600080fd5b505115156103f957600080fd5b60008054604080517f40d714cb000000000000000000000000000000000000000000000000000000008152600160a060020a03868116600483015260248201869052915191909216926340d714cb926044808201939182900301818387803b15801561046457600080fd5b505af1158015610478573d6000803e3d6000fd5b505050505050565b600080546040805160e260020a63348cdd25028152600160a060020a038681166004830152602482018690529151919092169163d233749491604480830192602092919082900301818787803b1580156104d957600080fd5b505af11580156104ed573d6000803e3d6000fd5b505050506040513d602081101561050357600080fd5b50519392505050565b600080546040805160e260020a63348cdd25028152336004820152600260248201529051600160a060020a039092169263d2337494926044808401936020939083900390910190829087803b15801561056457600080fd5b505af1158015610578573d6000803e3d6000fd5b505050506040513d602081101561058e57600080fd5b5051151561059b57600080fd5b60008054604080517fdd182996000000000000000000000000000000000000000000000000000000008152600160a060020a0385811660048301529151919092169263dd182996926024808201939182900301818387803b1580156105ff57600080fd5b505af1158015610613573d6000803e3d6000fd5b5050505050565b600080546040805160e260020a63348cdd25028152336004820152600260248201529051600160a060020a039092169263d2337494926044808401936020939083900390910190829087803b15801561067257600080fd5b505af1158015610686573d6000803e3d6000fd5b505050506040513d602081101561069c57600080fd5b505115156106a957600080fd5b60008054604080517fe8d60bbf000000000000000000000000000000000000000000000000000000008152600160a060020a038681166004830152602482018690529151919092169263e8d60bbf926044808201939182900301818387803b15801561071457600080fd5b505af1158015610728573d6000803e3d6000fd5b5050604080518481529051600160a060020a03861693507f0e27ae7a0cf94097f3546e89064f692b2fa096b439f143080b65b9e0948594c292509081900360200190a25050565b600080546040805160e260020a63348cdd25028152336004820152600260248201529051600160a060020a039092169263d2337494926044808401936020939083900390910190829087803b1580156107c757600080fd5b505af11580156107db573d6000803e3d6000fd5b505050506040513d60208110156107f157600080fd5b505115156107fe57600080fd5b60008054604080517f564677fe000000000000000000000000000000000000000000000000000000008152600160a060020a038681166004830152602482018690529151919092169263564677fe926044808201939182900301818387803b15801561046457600080fd00a165627a7a723058208540a317c48155cda185a37b93262a188cd22d4d59e32dfc6bd744694dc53b8200296080604081905260008054600160a060020a0319163317808255600160a060020a0316917f8be0079c531659141344cd1fd0a4f28419497f9722a3daafe3b4186f6b6457e0908290a3610669806100576000396000f3006080604052600436106100a35763ffffffff7c01000000000000000000000000000000000000000000000000000000006000350416632de9480781146100a857806340d714cb146100db578063564677fe14610101578063715018a6146101255780638da5cb5b1461013a5780638f32d59b1461016b578063d233749414610194578063dd182996146101b8578063e8d60bbf146101d9578063f2fde38b146101fd575b600080fd5b3480156100b457600080fd5b506100c9600160a060020a036004351661021e565b60408051918252519081900360200190f35b3480156100e757600080fd5b506100ff600160a060020a0360043516602435610237565b005b34801561010d57600080fd5b506100ff600160a060020a03600435166024356102a4565b34801561013157600080fd5b506100ff6102cb565b34801561014657600080fd5b5061014f610335565b60408051600160a060020a039092168252519081900360200190f35b34801561017757600080fd5b50610180610344565b604080519115158252519081900360200190f35b3480156101a057600080fd5b50610180600160a060020a0360043516602435610355565b3480156101c457600080fd5b506100ff600160a060020a0360043516610370565b3480156101e557600080fd5b506100ff600160a060020a03600435166024356103cb565b34801561020957600080fd5b506100ff600160a060020a0360043516610433565b600061023160018363ffffffff61045216565b92915050565b6000610241610344565b151561024c57600080fd5b61025e6001848463ffffffff61046e16565b604080518281529051919250600160a060020a038516917fa4edb18fee5fdf0a74890e2ec8040c4df0d1af41c4fe7fd739f81439d7e49bda9181900360200190a2505050565b60006102ae610344565b15156102b957600080fd5b61025e6001848463ffffffff6104ae16565b6102d3610344565b15156102de57600080fd5b60008054604051600160a060020a03909116907f8be0079c531659141344cd1fd0a4f28419497f9722a3daafe3b4186f6b6457e0908390a36000805473ffffffffffffffffffffffffffffffffffffffff19169055565b600054600160a060020a031690565b600054600160a060020a0316331490565b60006103696001848463ffffffff6104ed16565b9392505050565b610378610344565b151561038357600080fd5b61039460018263ffffffff61052816565b604051600160a060020a038216907f66baa8598dad476a7a23c2c39a3c9ea353a313b8050f5f2ff7df3121abe1f98390600090a250565b6103d3610344565b15156103de57600080fd5b6103f06001838363ffffffff61055816565b604080518281529051600160a060020a038416917f0e27ae7a0cf94097f3546e89064f692b2fa096b439f143080b65b9e0948594c2919081900360200190a25050565b61043b610344565b151561044657600080fd5b61044f8161058a565b50565b600160a060020a03166000908152602091909152604090205490565b600061047a8484610607565b151561048557600080fd5b50600160a060020a03821660009081526020849052604090208054821916908190559392505050565b60006104ba8484610607565b15156104c557600080fd5b50600160a060020a038216600090815260208490526040902080548217908190559392505050565b6000600160a060020a038316151561050457600080fd5b50600160a060020a0391909116600090815260209290925260409091205481161490565b6105328282610607565b151561053d57600080fd5b600160a060020a031660009081526020919091526040812055565b6105628383610607565b1561056c57600080fd5b600160a060020a039091166000908152602092909252604090912055565b600160a060020a038116151561059f57600080fd5b60008054604051600160a060020a03808516939216917f8be0079c531659141344cd1fd0a4f28419497f9722a3daafe3b4186f6b6457e091a36000805473ffffffffffffffffffffffffffffffffffffffff1916600160a060020a0392909216919091179055565b6000600160a060020a038216151561061e57600080fd5b50600160a060020a0316600090815260209190915260409020541515905600a165627a7a72305820f09f03280d62b0b7a03c5d8aefe2571565768d4e88dd30e8a6c886cbd82ec1d30029",
  "source": "pragma solidity ^0.4.24;\n\nimport \"./EntitiesList.sol\";\n\ncontract Community {\n    EntitiesList public entitiesList;\n    \n    bytes32 public constant userMask = bytes32(1);\n    bytes32 public constant adminMask = bytes32(2);\n\n    event EntityAdded(address indexed account, bytes32 roles);\n\n    constructor () public {\n        entitiesList = new EntitiesList();\n        entitiesList.addEntity(msg.sender, userMask | adminMask);\n    }\n\n    function setEntitiesList(address _entitiesList) public onlyAdmin {\n        entitiesList = EntitiesList(_entitiesList);\n    }\n\n    modifier onlyAdmin () {\n        require(entitiesList.hasRoles(msg.sender, adminMask));\n        _;\n    }\n\n    function join() public {\n        entitiesList.addEntity(msg.sender, userMask);\n    }\n\n    function addEntity(address _account, bytes32 _roles) public onlyAdmin {\n        entitiesList.addEntity(_account, _roles);\n        emit EntityAdded(_account, _roles);\n    }\n\n    function removeEntity(address _account) onlyAdmin public {\n        entitiesList.removeEntity(_account);\n    }\n\n    function addEnitityRoles(address _account, bytes32 _entityRoles) public onlyAdmin {\n        entitiesList.addRoles(_account, _entityRoles);\n    }\n\n    function removeEnitityRoles(address _account, bytes32 _entityRoles) public onlyAdmin {\n        entitiesList.removeRoles(_account, _entityRoles);\n    }\n\n    function hasRoles(address _account, bytes32 _entityRoles) public view returns (bool) {\n        return entitiesList.hasRoles(_account, _entityRoles);\n    }\n}",
  "sourcePath": "/Users/leon/workspace/fuse-studio-contracts/contracts/Community.sol",
  "compiler": {
    "name": "solc",
    "version": "0.4.24+commit.e67f0147.Emscripten.clang"
  },
  "schemaVersion": "3.0.8",
  "updatedAt": "2019-05-07T12:36:04.120Z",
  "devdoc": {
    "methods": {}
  },
  "userdoc": {
    "methods": {}
  }
}